{
  "contractName": "DistributedVoting",
  "abi": [
    {
      "inputs": [],
      "stateMutability": "nonpayable",
      "type": "constructor"
    },
    {
      "inputs": [
        {
          "internalType": "uint256",
          "name": "",
          "type": "uint256"
        }
      ],
      "name": "candidateList",
      "outputs": [
        {
          "internalType": "string",
          "name": "candidateName",
          "type": "string"
        },
        {
          "internalType": "bool",
          "name": "exists",
          "type": "bool"
        },
        {
          "internalType": "int256",
          "name": "voteCount",
          "type": "int256"
        }
      ],
      "stateMutability": "view",
      "type": "function",
      "constant": true
    },
    {
      "inputs": [],
      "name": "state",
      "outputs": [
        {
          "internalType": "enum DistributedVoting.State",
          "name": "",
          "type": "uint8"
        }
      ],
      "stateMutability": "view",
      "type": "function",
      "constant": true
    },
    {
      "inputs": [
        {
          "internalType": "uint256",
          "name": "",
          "type": "uint256"
        }
      ],
      "name": "voterList",
      "outputs": [
        {
          "internalType": "address",
          "name": "voterAddress",
          "type": "address"
        },
        {
          "internalType": "string",
          "name": "voterName",
          "type": "string"
        },
        {
          "internalType": "int256",
          "name": "voterAge",
          "type": "int256"
        },
        {
          "internalType": "bool",
          "name": "voterExists",
          "type": "bool"
        },
        {
          "internalType": "bool",
          "name": "registered",
          "type": "bool"
        },
        {
          "internalType": "bool",
          "name": "voted",
          "type": "bool"
        }
      ],
      "stateMutability": "view",
      "type": "function",
      "constant": true
    },
    {
      "inputs": [],
      "name": "checkAdmin",
      "outputs": [
        {
          "internalType": "bool",
          "name": "",
          "type": "bool"
        }
      ],
      "stateMutability": "view",
      "type": "function",
      "constant": true
    },
    {
      "inputs": [],
      "name": "getState",
      "outputs": [
        {
          "internalType": "enum DistributedVoting.State",
          "name": "",
          "type": "uint8"
        }
      ],
      "stateMutability": "view",
      "type": "function",
      "constant": true
    },
    {
      "inputs": [
        {
          "internalType": "string",
          "name": "name",
          "type": "string"
        }
      ],
      "name": "addCandidate",
      "outputs": [],
      "stateMutability": "nonpayable",
      "type": "function"
    },
    {
      "inputs": [
        {
          "internalType": "string",
          "name": "name",
          "type": "string"
        }
      ],
      "name": "getCandidate",
      "outputs": [
        {
          "components": [
            {
              "internalType": "string",
              "name": "candidateName",
              "type": "string"
            },
            {
              "internalType": "bool",
              "name": "exists",
              "type": "bool"
            },
            {
              "internalType": "int256",
              "name": "voteCount",
              "type": "int256"
            }
          ],
          "internalType": "struct DistributedVoting.Candidate",
          "name": "candidate",
          "type": "tuple"
        }
      ],
      "stateMutability": "view",
      "type": "function",
      "constant": true
    },
    {
      "inputs": [],
      "name": "getAllCandidates",
      "outputs": [
        {
          "components": [
            {
              "internalType": "string",
              "name": "candidateName",
              "type": "string"
            },
            {
              "internalType": "bool",
              "name": "exists",
              "type": "bool"
            },
            {
              "internalType": "int256",
              "name": "voteCount",
              "type": "int256"
            }
          ],
          "internalType": "struct DistributedVoting.Candidate[]",
          "name": "",
          "type": "tuple[]"
        }
      ],
      "stateMutability": "view",
      "type": "function",
      "constant": true
    },
    {
      "inputs": [],
      "name": "startElection",
      "outputs": [],
      "stateMutability": "nonpayable",
      "type": "function"
    },
    {
      "inputs": [],
      "name": "endElection",
      "outputs": [],
      "stateMutability": "nonpayable",
      "type": "function"
    },
    {
      "inputs": [],
      "name": "resetElection",
      "outputs": [],
      "stateMutability": "nonpayable",
      "type": "function"
    },
    {
      "inputs": [
        {
          "internalType": "string",
          "name": "name",
          "type": "string"
        },
        {
          "internalType": "int256",
          "name": "age",
          "type": "int256"
        }
      ],
      "name": "registerVoter",
      "outputs": [],
      "stateMutability": "nonpayable",
      "type": "function"
    },
    {
      "inputs": [
        {
          "internalType": "address",
          "name": "voter",
          "type": "address"
        }
      ],
      "name": "verifyVoter",
      "outputs": [],
      "stateMutability": "nonpayable",
      "type": "function"
    },
    {
      "inputs": [],
      "name": "getAllVoters",
      "outputs": [
        {
          "components": [
            {
              "internalType": "address",
              "name": "voterAddress",
              "type": "address"
            },
            {
              "internalType": "string",
              "name": "voterName",
              "type": "string"
            },
            {
              "internalType": "int256",
              "name": "voterAge",
              "type": "int256"
            },
            {
              "internalType": "bool",
              "name": "voterExists",
              "type": "bool"
            },
            {
              "internalType": "bool",
              "name": "registered",
              "type": "bool"
            },
            {
              "internalType": "bool",
              "name": "voted",
              "type": "bool"
            }
          ],
          "internalType": "struct DistributedVoting.Voter[]",
          "name": "",
          "type": "tuple[]"
        }
      ],
      "stateMutability": "view",
      "type": "function",
      "constant": true
    },
    {
      "inputs": [
        {
          "internalType": "string",
          "name": "name",
          "type": "string"
        }
      ],
      "name": "castVote",
      "outputs": [],
      "stateMutability": "nonpayable",
      "type": "function"
    }
  ],
  "bytecode": "0x6080604052348015600f57600080fd5b506001600360003373ffffffffffffffffffffffffffffffffffffffff1673ffffffffffffffffffffffffffffffffffffffff16815260200190815260200160002060006101000a81548160ff021916908315150217905550612f86806100776000396000f3fe608060405234801561001057600080fd5b50600436106100f55760003560e01c806362d73eb811610097578063c19d93fb11610066578063c19d93fb14610241578063e8f305231461025f578063f276669d14610269578063f487bc7914610299576100f5565b806362d73eb8146101cb5780639cc2d993146101d5578063ab150226146101f1578063b13c744b1461020f576100f5565b806335bbe70e116100d357806335bbe70e14610152578063462e91ec1461017057806350e2e8af1461018c57806359f78468146101c1576100f5565b806309bd0950146100fa5780631865c57d146101165780632e6997fe14610134575b600080fd5b610114600480360381019061010f9190611ca3565b6102b5565b005b61011e61053a565b60405161012b9190611d47565b60405180910390f35b61013c610550565b6040516101499190611f38565b60405180910390f35b61015a610666565b60405161016791906120b4565b60405180910390f35b61018a6004803603810190610185919061220b565b61089b565b005b6101a660048036038101906101a1919061228a565b610b33565b6040516101b89695949392919061232e565b60405180910390f35b6101c9610c4e565b005b6101d3610d81565b005b6101ef60048036038101906101ea919061220b565b610eb4565b005b6101f961131e565b6040516102069190612396565b60405180910390f35b6102296004803603810190610224919061228a565b611372565b604051610238939291906123b1565b60405180910390f35b610249611441565b6040516102569190611d47565b60405180910390f35b610267611452565b005b610283600480360381019061027e919061220b565b611511565b604051610290919061243f565b60405180910390f35b6102b360048036038101906102ae919061248d565b611677565b005b60011515600360003373ffffffffffffffffffffffffffffffffffffffff1673ffffffffffffffffffffffffffffffffffffffff16815260200190815260200160002060009054906101000a900460ff16151514610348576040517f08c379a000000000000000000000000000000000000000000000000000000000815260040161033f90612535565b60405180910390fd5b6000600281111561035c5761035b611cd0565b5b60008054906101000a900460ff16600281111561037c5761037b611cd0565b5b146103bc576040517f08c379a00000000000000000000000000000000000000000000000000000000081526004016103b3906125a1565b60405180910390fd5b60011515600560008373ffffffffffffffffffffffffffffffffffffffff1673ffffffffffffffffffffffffffffffffffffffff16815260200190815260200160002060030160009054906101000a900460ff16151514610452576040517f08c379a00000000000000000000000000000000000000000000000000000000081526004016104499061260d565b60405180910390fd5b6001600560008373ffffffffffffffffffffffffffffffffffffffff1673ffffffffffffffffffffffffffffffffffffffff16815260200190815260200160002060030160016101000a81548160ff02191690831515021790555060006104f6600560008473ffffffffffffffffffffffffffffffffffffffff1673ffffffffffffffffffffffffffffffffffffffff168152602001908152602001600020611b2c565b905060016002828154811061050e5761050d61262d565b5b906000526020600020906004020160030160016101000a81548160ff0219169083151502179055505050565b60008060009054906101000a900460ff16905090565b60606001805480602002602001604051908101604052809291908181526020016000905b8282101561065d57838290600052602060002090600302016040518060600160405290816000820180546105a79061268b565b80601f01602080910402602001604051908101604052809291908181526020018280546105d39061268b565b80156106205780601f106105f557610100808354040283529160200191610620565b820191906000526020600020905b81548152906001019060200180831161060357829003601f168201915b505050505081526020016001820160009054906101000a900460ff1615151515815260200160028201548152505081526020019060010190610574565b50505050905090565b606060011515600360003373ffffffffffffffffffffffffffffffffffffffff1673ffffffffffffffffffffffffffffffffffffffff16815260200190815260200160002060009054906101000a900460ff161515146106fb576040517f08c379a00000000000000000000000000000000000000000000000000000000081526004016106f290612535565b60405180910390fd5b6002805480602002602001604051908101604052809291908181526020016000905b8282101561089257838290600052602060002090600402016040518060c00160405290816000820160009054906101000a900473ffffffffffffffffffffffffffffffffffffffff1673ffffffffffffffffffffffffffffffffffffffff1673ffffffffffffffffffffffffffffffffffffffff1681526020016001820180546107a69061268b565b80601f01602080910402602001604051908101604052809291908181526020018280546107d29061268b565b801561081f5780601f106107f45761010080835404028352916020019161081f565b820191906000526020600020905b81548152906001019060200180831161080257829003601f168201915b50505050508152602001600282015481526020016003820160009054906101000a900460ff161515151581526020016003820160019054906101000a900460ff161515151581526020016003820160029054906101000a900460ff1615151515815250508152602001906001019061071d565b50505050905090565b60011515600360003373ffffffffffffffffffffffffffffffffffffffff1673ffffffffffffffffffffffffffffffffffffffff16815260200190815260200160002060009054906101000a900460ff1615151461092e576040517f08c379a000000000000000000000000000000000000000000000000000000000815260040161092590612535565b60405180910390fd5b806000151560048260405161094391906126f8565b908152602001604051809103902060010160009054906101000a900460ff161515146109a4576040517f08c379a000000000000000000000000000000000000000000000000000000000815260040161099b9061275b565b60405180910390fd5b600060028111156109b8576109b7611cd0565b5b60008054906101000a900460ff1660028111156109d8576109d7611cd0565b5b14610a18576040517f08c379a0000000000000000000000000000000000000000000000000000000008152600401610a0f906125a1565b60405180910390fd5b60405180606001604052808381526020016001151581526020016000815250600483604051610a4791906126f8565b90815260200160405180910390206000820151816000019081610a6a9190612927565b5060208201518160010160006101000a81548160ff021916908315150217905550604082015181600201559050506001600483604051610aaa91906126f8565b9081526020016040518091039020908060018154018082558091505060019003906000526020600020906003020160009091909190915060008201816000019081610af59190612a0f565b506001820160009054906101000a900460ff168160010160006101000a81548160ff0219169083151502179055506002820154816002015550505050565b60028181548110610b4357600080fd5b90600052602060002090600402016000915090508060000160009054906101000a900473ffffffffffffffffffffffffffffffffffffffff1690806001018054610b8c9061268b565b80601f0160208091040260200160405190810160405280929190818152602001828054610bb89061268b565b8015610c055780601f10610bda57610100808354040283529160200191610c05565b820191906000526020600020905b815481529060010190602001808311610be857829003601f168201915b5050505050908060020154908060030160009054906101000a900460ff16908060030160019054906101000a900460ff16908060030160029054906101000a900460ff16905086565b60011515600360003373ffffffffffffffffffffffffffffffffffffffff1673ffffffffffffffffffffffffffffffffffffffff16815260200190815260200160002060009054906101000a900460ff16151514610ce1576040517f08c379a0000000000000000000000000000000000000000000000000000000008152600401610cd890612535565b60405180910390fd5b60016002811115610cf557610cf4611cd0565b5b60008054906101000a900460ff166002811115610d1557610d14611cd0565b5b14610d55576040517f08c379a0000000000000000000000000000000000000000000000000000000008152600401610d4c90612b43565b60405180910390fd5b60026000806101000a81548160ff02191690836002811115610d7a57610d79611cd0565b5b0217905550565b60011515600360003373ffffffffffffffffffffffffffffffffffffffff1673ffffffffffffffffffffffffffffffffffffffff16815260200190815260200160002060009054906101000a900460ff16151514610e14576040517f08c379a0000000000000000000000000000000000000000000000000000000008152600401610e0b90612535565b60405180910390fd5b60006002811115610e2857610e27611cd0565b5b60008054906101000a900460ff166002811115610e4857610e47611cd0565b5b14610e88576040517f08c379a0000000000000000000000000000000000000000000000000000000008152600401610e7f906125a1565b60405180910390fd5b60016000806101000a81548160ff02191690836002811115610ead57610eac611cd0565b5b0217905550565b8060011515600482604051610ec991906126f8565b908152602001604051809103902060010160009054906101000a900460ff16151514610f2a576040517f08c379a0000000000000000000000000000000000000000000000000000000008152600401610f2190612baf565b60405180910390fd5b60001515600360003373ffffffffffffffffffffffffffffffffffffffff1673ffffffffffffffffffffffffffffffffffffffff16815260200190815260200160002060009054906101000a900460ff16151514610fbd576040517f08c379a0000000000000000000000000000000000000000000000000000000008152600401610fb490612c1b565b60405180910390fd5b60016002811115610fd157610fd0611cd0565b5b60008054906101000a900460ff166002811115610ff157610ff0611cd0565b5b14611031576040517f08c379a000000000000000000000000000000000000000000000000000000000815260040161102890612b43565b60405180910390fd5b60011515600560003373ffffffffffffffffffffffffffffffffffffffff1673ffffffffffffffffffffffffffffffffffffffff16815260200190815260200160002060030160019054906101000a900460ff161515146110c7576040517f08c379a00000000000000000000000000000000000000000000000000000000081526004016110be90612c87565b60405180910390fd5b60001515600560003373ffffffffffffffffffffffffffffffffffffffff1673ffffffffffffffffffffffffffffffffffffffff16815260200190815260200160002060030160029054906101000a900460ff1615151461115d576040517f08c379a000000000000000000000000000000000000000000000000000000000815260040161115490612cf3565b60405180910390fd5b60048260405161116d91906126f8565b9081526020016040518091039020600201600081548092919061118f90612d42565b91905055506001600560003373ffffffffffffffffffffffffffffffffffffffff1673ffffffffffffffffffffffffffffffffffffffff16815260200190815260200160002060030160026101000a81548160ff0219169083151502179055506000611238600560003373ffffffffffffffffffffffffffffffffffffffff1673ffffffffffffffffffffffffffffffffffffffff168152602001908152602001600020611b2c565b90506001600282815481106112505761124f61262d565b5b906000526020600020906004020160030160026101000a81548160ff02191690831515021790555060005b600180549050811015611318578380519060200120600182815481106112a4576112a361262d565b5b90600052602060002090600302016000016040516112c29190612e2d565b60405180910390200361130b57600181815481106112e3576112e261262d565b5b9060005260206000209060030201600201600081548092919061130590612d42565b91905055505b808060010191505061127b565b50505050565b6000600360003373ffffffffffffffffffffffffffffffffffffffff1673ffffffffffffffffffffffffffffffffffffffff16815260200190815260200160002060009054906101000a900460ff16905090565b6001818154811061138257600080fd5b90600052602060002090600302016000915090508060000180546113a59061268b565b80601f01602080910402602001604051908101604052809291908181526020018280546113d19061268b565b801561141e5780601f106113f35761010080835404028352916020019161141e565b820191906000526020600020905b81548152906001019060200180831161140157829003601f168201915b5050505050908060010160009054906101000a900460ff16908060020154905083565b60008054906101000a900460ff1681565b60011515600360003373ffffffffffffffffffffffffffffffffffffffff1673ffffffffffffffffffffffffffffffffffffffff16815260200190815260200160002060009054906101000a900460ff161515146114e5576040517f08c379a00000000000000000000000000000000000000000000000000000000081526004016114dc90612535565b60405180910390fd5b60008060006101000a81548160ff0219169083600281111561150a57611509611cd0565b5b0217905550565b611519611c0e565b816001151560048260405161152e91906126f8565b908152602001604051809103902060010160009054906101000a900460ff1615151461158f576040517f08c379a000000000000000000000000000000000000000000000000000000000815260040161158690612baf565b60405180910390fd5b60048360405161159f91906126f8565b90815260200160405180910390206040518060600160405290816000820180546115c89061268b565b80601f01602080910402602001604051908101604052809291908181526020018280546115f49061268b565b80156116415780601f1061161657610100808354040283529160200191611641565b820191906000526020600020905b81548152906001019060200180831161162457829003601f168201915b505050505081526020016001820160009054906101000a900460ff16151515158152602001600282015481525050915050919050565b60001515600360003373ffffffffffffffffffffffffffffffffffffffff1673ffffffffffffffffffffffffffffffffffffffff16815260200190815260200160002060009054906101000a900460ff1615151461170a576040517f08c379a000000000000000000000000000000000000000000000000000000000815260040161170190612c1b565b60405180910390fd5b6000600281111561171e5761171d611cd0565b5b60008054906101000a900460ff16600281111561173e5761173d611cd0565b5b1461177e576040517f08c379a0000000000000000000000000000000000000000000000000000000008152600401611775906125a1565b60405180910390fd5b3360001515600560008373ffffffffffffffffffffffffffffffffffffffff1673ffffffffffffffffffffffffffffffffffffffff16815260200190815260200160002060030160009054906101000a900460ff16151514611815576040517f08c379a000000000000000000000000000000000000000000000000000000000815260040161180c90612e90565b60405180910390fd5b6012821215611859576040517f08c379a000000000000000000000000000000000000000000000000000000000815260040161185090612efc565b60405180910390fd5b6040518060c001604052803373ffffffffffffffffffffffffffffffffffffffff16815260200184815260200183815260200160011515815260200160001515815260200160001515815250600560003373ffffffffffffffffffffffffffffffffffffffff1673ffffffffffffffffffffffffffffffffffffffff16815260200190815260200160002060008201518160000160006101000a81548173ffffffffffffffffffffffffffffffffffffffff021916908373ffffffffffffffffffffffffffffffffffffffff16021790555060208201518160010190816119409190612927565b506040820151816002015560608201518160030160006101000a81548160ff02191690831515021790555060808201518160030160016101000a81548160ff02191690831515021790555060a08201518160030160026101000a81548160ff0219169083151502179055509050506002600560003373ffffffffffffffffffffffffffffffffffffffff1673ffffffffffffffffffffffffffffffffffffffff16815260200190815260200160002090806001815401808255809150506001900390600052602060002090600402016000909190919091506000820160009054906101000a900473ffffffffffffffffffffffffffffffffffffffff168160000160006101000a81548173ffffffffffffffffffffffffffffffffffffffff021916908373ffffffffffffffffffffffffffffffffffffffff16021790555060018201816001019081611a939190612a0f565b50600282015481600201556003820160009054906101000a900460ff168160030160006101000a81548160ff0219169083151502179055506003820160019054906101000a900460ff168160030160016101000a81548160ff0219169083151502179055506003820160029054906101000a900460ff168160030160026101000a81548160ff0219169083151502179055505050505050565b600080600090505b600280549050811015611bf3578260000160009054906101000a900473ffffffffffffffffffffffffffffffffffffffff1673ffffffffffffffffffffffffffffffffffffffff1660028281548110611b9057611b8f61262d565b5b906000526020600020906004020160000160009054906101000a900473ffffffffffffffffffffffffffffffffffffffff1673ffffffffffffffffffffffffffffffffffffffff1603611be65780915050611c09565b8080600101915050611b34565b506001600280549050611c069190612f1c565b90505b919050565b604051806060016040528060608152602001600015158152602001600081525090565b6000604051905090565b600080fd5b600080fd5b600073ffffffffffffffffffffffffffffffffffffffff82169050919050565b6000611c7082611c45565b9050919050565b611c8081611c65565b8114611c8b57600080fd5b50565b600081359050611c9d81611c77565b92915050565b600060208284031215611cb957611cb8611c3b565b5b6000611cc784828501611c8e565b91505092915050565b7f4e487b7100000000000000000000000000000000000000000000000000000000600052602160045260246000fd5b60038110611d1057611d0f611cd0565b5b50565b6000819050611d2182611cff565b919050565b6000611d3182611d13565b9050919050565b611d4181611d26565b82525050565b6000602082019050611d5c6000830184611d38565b92915050565b600081519050919050565b600082825260208201905092915050565b6000819050602082019050919050565b600081519050919050565b600082825260208201905092915050565b60005b83811015611dc8578082015181840152602081019050611dad565b60008484015250505050565b6000601f19601f8301169050919050565b6000611df082611d8e565b611dfa8185611d99565b9350611e0a818560208601611daa565b611e1381611dd4565b840191505092915050565b60008115159050919050565b611e3381611e1e565b82525050565b6000819050919050565b611e4c81611e39565b82525050565b60006060830160008301518482036000860152611e6f8282611de5565b9150506020830151611e846020860182611e2a565b506040830151611e976040860182611e43565b508091505092915050565b6000611eae8383611e52565b905092915050565b6000602082019050919050565b6000611ece82611d62565b611ed88185611d6d565b935083602082028501611eea85611d7e565b8060005b85811015611f265784840389528151611f078582611ea2565b9450611f1283611eb6565b925060208a01995050600181019050611eee565b50829750879550505050505092915050565b60006020820190508181036000830152611f528184611ec3565b905092915050565b600081519050919050565b600082825260208201905092915050565b6000819050602082019050919050565b611f8f81611c65565b82525050565b600060c083016000830151611fad6000860182611f86565b5060208301518482036020860152611fc58282611de5565b9150506040830151611fda6040860182611e43565b506060830151611fed6060860182611e2a565b5060808301516120006080860182611e2a565b5060a083015161201360a0860182611e2a565b508091505092915050565b600061202a8383611f95565b905092915050565b6000602082019050919050565b600061204a82611f5a565b6120548185611f65565b93508360208202850161206685611f76565b8060005b858110156120a25784840389528151612083858261201e565b945061208e83612032565b925060208a0199505060018101905061206a565b50829750879550505050505092915050565b600060208201905081810360008301526120ce818461203f565b905092915050565b600080fd5b600080fd5b7f4e487b7100000000000000000000000000000000000000000000000000000000600052604160045260246000fd5b61211882611dd4565b810181811067ffffffffffffffff82111715612137576121366120e0565b5b80604052505050565b600061214a611c31565b9050612156828261210f565b919050565b600067ffffffffffffffff821115612176576121756120e0565b5b61217f82611dd4565b9050602081019050919050565b82818337600083830152505050565b60006121ae6121a98461215b565b612140565b9050828152602081018484840111156121ca576121c96120db565b5b6121d584828561218c565b509392505050565b600082601f8301126121f2576121f16120d6565b5b813561220284826020860161219b565b91505092915050565b60006020828403121561222157612220611c3b565b5b600082013567ffffffffffffffff81111561223f5761223e611c40565b5b61224b848285016121dd565b91505092915050565b6000819050919050565b61226781612254565b811461227257600080fd5b50565b6000813590506122848161225e565b92915050565b6000602082840312156122a05761229f611c3b565b5b60006122ae84828501612275565b91505092915050565b6122c081611c65565b82525050565b600082825260208201905092915050565b60006122e282611d8e565b6122ec81856122c6565b93506122fc818560208601611daa565b61230581611dd4565b840191505092915050565b61231981611e39565b82525050565b61232881611e1e565b82525050565b600060c08201905061234360008301896122b7565b818103602083015261235581886122d7565b90506123646040830187612310565b612371606083018661231f565b61237e608083018561231f565b61238b60a083018461231f565b979650505050505050565b60006020820190506123ab600083018461231f565b92915050565b600060608201905081810360008301526123cb81866122d7565b90506123da602083018561231f565b6123e76040830184612310565b949350505050565b6000606083016000830151848203600086015261240c8282611de5565b91505060208301516124216020860182611e2a565b5060408301516124346040860182611e43565b508091505092915050565b6000602082019050818103600083015261245981846123ef565b905092915050565b61246a81611e39565b811461247557600080fd5b50565b60008135905061248781612461565b92915050565b600080604083850312156124a4576124a3611c3b565b5b600083013567ffffffffffffffff8111156124c2576124c1611c40565b5b6124ce858286016121dd565b92505060206124df85828601612478565b9150509250929050565b7f4e6f742041646d696e0000000000000000000000000000000000000000000000600082015250565b600061251f6009836122c6565b915061252a826124e9565b602082019050919050565b6000602082019050818103600083015261254e81612512565b9050919050565b7f456c656374696f6e20616c726561647920737461727465640000000000000000600082015250565b600061258b6018836122c6565b915061259682612555565b602082019050919050565b600060208201905081810360008301526125ba8161257e565b9050919050565b7f566f74657220646f6573206e6f74206578697374000000000000000000000000600082015250565b60006125f76014836122c6565b9150612602826125c1565b602082019050919050565b60006020820190508181036000830152612626816125ea565b9050919050565b7f4e487b7100000000000000000000000000000000000000000000000000000000600052603260045260246000fd5b7f4e487b7100000000000000000000000000000000000000000000000000000000600052602260045260246000fd5b600060028204905060018216806126a357607f821691505b6020821081036126b6576126b561265c565b5b50919050565b600081905092915050565b60006126d282611d8e565b6126dc81856126bc565b93506126ec818560208601611daa565b80840191505092915050565b600061270482846126c7565b915081905092915050565b7f43616e64696461746520616c7265616479206578697374730000000000000000600082015250565b60006127456018836122c6565b91506127508261270f565b602082019050919050565b6000602082019050818103600083015261277481612738565b9050919050565b60008190508160005260206000209050919050565b60006020601f8301049050919050565b600082821b905092915050565b6000600883026127dd7fffffffffffffffffffffffffffffffffffffffffffffffffffffffffffffffff826127a0565b6127e786836127a0565b95508019841693508086168417925050509392505050565b6000819050919050565b600061282461281f61281a84612254565b6127ff565b612254565b9050919050565b6000819050919050565b61283e83612809565b61285261284a8261282b565b8484546127ad565b825550505050565b600090565b61286761285a565b612872818484612835565b505050565b5b818110156128965761288b60008261285f565b600181019050612878565b5050565b601f8211156128db576128ac8161277b565b6128b584612790565b810160208510156128c4578190505b6128d86128d085612790565b830182612877565b50505b505050565b600082821c905092915050565b60006128fe600019846008026128e0565b1980831691505092915050565b600061291783836128ed565b9150826002028217905092915050565b61293082611d8e565b67ffffffffffffffff811115612949576129486120e0565b5b612953825461268b565b61295e82828561289a565b600060209050601f831160018114612991576000841561297f578287015190505b612989858261290b565b8655506129f1565b601f19841661299f8661277b565b60005b828110156129c7578489015182556001820191506020850194506020810190506129a2565b868310156129e457848901516129e0601f8916826128ed565b8355505b6001600288020188555050505b505050505050565b600081549050612a088161268b565b9050919050565b818103612a1d575050612af5565b612a26826129f9565b67ffffffffffffffff811115612a3f57612a3e6120e0565b5b612a49825461268b565b612a5482828561289a565b6000601f831160018114612a835760008415612a71578287015490505b612a7b858261290b565b865550612aee565b601f198416612a918761277b565b9650612a9c8661277b565b60005b82811015612ac457848901548255600182019150600185019450602081019050612a9f565b86831015612ae15784890154612add601f8916826128ed565b8355505b6001600288020188555050505b5050505050505b565b7f456c656374696f6e2068617320456e6465640000000000000000000000000000600082015250565b6000612b2d6012836122c6565b9150612b3882612af7565b602082019050919050565b60006020820190508181036000830152612b5c81612b20565b9050919050565b7f43616e64696461746520646f6573206e6f742065786973740000000000000000600082015250565b6000612b996018836122c6565b9150612ba482612b63565b602082019050919050565b60006020820190508181036000830152612bc881612b8c565b9050919050565b7f41646d696e2063616e6e6f7420566f7465000000000000000000000000000000600082015250565b6000612c056011836122c6565b9150612c1082612bcf565b602082019050919050565b60006020820190508181036000830152612c3481612bf8565b9050919050565b7f796f7520617265206e6f74207665726966696564000000000000000000000000600082015250565b6000612c716014836122c6565b9150612c7c82612c3b565b602082019050919050565b60006020820190508181036000830152612ca081612c64565b9050919050565b7f416c726561647920766f74656400000000000000000000000000000000000000600082015250565b6000612cdd600d836122c6565b9150612ce882612ca7565b602082019050919050565b60006020820190508181036000830152612d0c81612cd0565b9050919050565b7f4e487b7100000000000000000000000000000000000000000000000000000000600052601160045260246000fd5b6000612d4d82611e39565b91507f7fffffffffffffffffffffffffffffffffffffffffffffffffffffffffffffff8203612d7f57612d7e612d13565b5b600182019050919050565b600081905092915050565b60008190508160005260206000209050919050565b60008154612db78161268b565b612dc18186612d8a565b94506001821660008114612ddc5760018114612df157612e24565b60ff1983168652811515820286019350612e24565b612dfa85612d95565b60005b83811015612e1c57815481890152600182019150602081019050612dfd565b838801955050505b50505092915050565b6000612e398284612daa565b915081905092915050565b7f416c726561647920526567697374657265640000000000000000000000000000600082015250565b6000612e7a6012836122c6565b9150612e8582612e44565b602082019050919050565b60006020820190508181036000830152612ea981612e6d565b9050919050565b7f556e6465726167652063616e6e6f7420766f7465000000000000000000000000600082015250565b6000612ee66014836122c6565b9150612ef182612eb0565b602082019050919050565b60006020820190508181036000830152612f1581612ed9565b9050919050565b6000612f2782612254565b9150612f3283612254565b9250828201905080821115612f4a57612f49612d13565b5b9291505056fea26469706673582212203a3ec1dee22152209af04778c865df2da96f990a402ae81d18abdbee810eaf4664736f6c634300081c0033",
  "immutableReferences": {},
  "source": "// SPDX-License-Identifier: GPL-3.0\r\n\r\npragma solidity ^0.8.0;\r\n\r\ncontract DistributedVoting {\r\n    constructor() {\r\n        admins[msg.sender] = true;\r\n    }\r\n\r\n    // Variable\r\n    struct Voter {\r\n        address voterAddress;\r\n        string voterName;\r\n        int256 voterAge;\r\n        bool voterExists;\r\n        bool registered;\r\n        bool voted;\r\n    }\r\n\r\n    struct Candidate {\r\n        string candidateName;\r\n        bool exists;\r\n        int256 voteCount;\r\n    }\r\n\r\n    enum State {\r\n        NotStarted,\r\n        Running,\r\n        Ended\r\n    }\r\n\r\n    State public state;\r\n\r\n    // Lists\r\n    Candidate[] public candidateList;\r\n    Voter[] public voterList;\r\n\r\n    // Mappings\r\n    mapping(address => bool) admins;\r\n    mapping(string => Candidate) candidates;\r\n    mapping(address => Voter) voters;\r\n\r\n    // Modifiers\r\n    modifier onlyAdmin() {\r\n        require(admins[msg.sender] == true, \"Not Admin\");\r\n        _;\r\n    }\r\n\r\n    modifier isVoter(address _address) {\r\n        require(voters[_address].registered == true, \"Not Registered\");\r\n        _;\r\n    }\r\n\r\n    modifier candidateExists(string memory name) {\r\n        require(candidates[name].exists == true, \"Candidate does not exist\");\r\n        _;\r\n    }\r\n\r\n    modifier notStarted() {\r\n        require(state == State.NotStarted, \"Election already started\");\r\n        _;\r\n    }\r\n\r\n    modifier running() {\r\n        require(state == State.Running, \"Election has Ended\");\r\n        _;\r\n    }\r\n\r\n    modifier ended() {\r\n        require(state == State.Ended, \"Election Running or not started\");\r\n        _;\r\n    }\r\n\r\n    modifier notVoted() {\r\n        require(voters[msg.sender].voted == false, \"Already voted\");\r\n        _;\r\n    }\r\n    modifier isVerified() {\r\n        require(voters[msg.sender].registered == true, \"you are not verified\");\r\n        _;\r\n    }\r\n\r\n    modifier notAdmin() {\r\n        require(admins[msg.sender] == false, \"Admin cannot Vote\");\r\n        _;\r\n    }\r\n\r\n    modifier candidateNotExists(string memory name) {\r\n        require(candidates[name].exists == false, \"Candidate already exists\");\r\n        _;\r\n    }\r\n\r\n    modifier voterNotExists(address _address) {\r\n        require(voters[_address].voterExists == false, \"Already Registered\");\r\n        _;\r\n    }\r\n\r\n    // Functions\r\n    function checkAdmin() public view returns (bool) {\r\n        return admins[msg.sender];\r\n    }\r\n\r\n    function getState() public view returns (State) {\r\n        return state;\r\n    }\r\n\r\n    function addCandidate(string memory name)\r\n        public\r\n        onlyAdmin\r\n        candidateNotExists(name)\r\n        notStarted\r\n    {\r\n        candidates[name] = Candidate({\r\n            candidateName: name,\r\n            exists: true,\r\n            voteCount: 0\r\n        });\r\n        candidateList.push(candidates[name]);\r\n    }\r\n\r\n    function getCandidate(string memory name)\r\n        public\r\n        view\r\n        candidateExists(name)\r\n        returns (Candidate memory candidate)\r\n    {\r\n        candidate = candidates[name];\r\n        return (candidate);\r\n    }\r\n\r\n    function getAllCandidates() public view returns (Candidate[] memory) {\r\n        return candidateList;\r\n    }\r\n\r\n    function startElection() public onlyAdmin notStarted {\r\n        state = State.Running;\r\n    }\r\n\r\n    function endElection() public onlyAdmin running {\r\n        state = State.Ended;\r\n    }\r\n\r\n    function resetElection() public onlyAdmin {\r\n        state = State.NotStarted;\r\n    }\r\n\r\n    function registerVoter(string memory name, int256 age)\r\n        public\r\n        notAdmin\r\n        notStarted\r\n        voterNotExists(msg.sender)\r\n    {\r\n        require(age >= 18, \"Underage cannot vote\");\r\n        voters[msg.sender] = Voter({\r\n            voterAddress: msg.sender,\r\n            voterName: name,\r\n            voterAge: age,\r\n            voterExists: true,\r\n            registered: false,\r\n            voted: false\r\n        });\r\n        voterList.push(voters[msg.sender]);\r\n    }\r\n\r\n    function indexOf(Voter storage searchedVoter)\r\n        private\r\n        view\r\n        returns (uint256)\r\n    {\r\n        for (uint256 i = 0; i < voterList.length; i++) {\r\n            if (voterList[i].voterAddress == searchedVoter.voterAddress) {\r\n                return i;\r\n            }\r\n        }\r\n        return voterList.length + 1;\r\n    }\r\n\r\n    function verifyVoter(address voter) public onlyAdmin notStarted {\r\n        require(voters[voter].voterExists == true, \"Voter does not exist\");\r\n        voters[voter].registered = true;\r\n\r\n        uint256 _index = indexOf(voters[voter]);\r\n        voterList[_index].registered = true;\r\n    }\r\n\r\n    function getAllVoters() public view onlyAdmin returns (Voter[] memory) {\r\n        return voterList;\r\n    }\r\n\r\n    function castVote(string memory name)\r\n        public\r\n        candidateExists(name)\r\n        notAdmin\r\n        running\r\n        isVerified\r\n        notVoted\r\n    {\r\n        candidates[name].voteCount++;\r\n        voters[msg.sender].voted = true;\r\n\r\n        uint256 _index = indexOf(voters[msg.sender]);\r\n        voterList[_index].voted = true;\r\n        for (uint256 i = 0; i < candidateList.length; i++) {\r\n            if (\r\n                keccak256(bytes(candidateList[i].candidateName)) ==\r\n                keccak256(bytes(name))\r\n            ) {\r\n                candidateList[i].voteCount++;\r\n            }\r\n        }\r\n    }\r\n}\r\n",
  "sourcePath": "C:\\miniproject\\contracts\\DistributedVoting.sol",
  "compiler": {
    "name": "solc",
    "version": "0.8.28+commit.7893614a.Emscripten.clang"
  },
  "schemaVersion": "3.4.16",
  "updatedAt": "2024-11-23T11:54:06.906Z",
  "networkType": "ethereum",
  "devdoc": {
    "kind": "dev",
    "methods": {},
    "version": 1
  },
  "userdoc": {
    "kind": "user",
    "methods": {},
    "version": 1
  }
}